S01C000041544D65676133325F4156525F50726F6A6563742E7372656316
S11300000C942A000C9447000C9447000C9447006D
S11300100C9447000C9447000C9447000C94470040
S11300200C9447000C9447000C9447000C94470030
S11300300C9447000C9447000C9447000C94470020
S11300400C949B010C9447000C9447000C944700BB
S11300500C94470011241FBECFE5D8E0DEBFCDBF0E
S113006010E0A0E6B0E0ECEDF4E002C005900D92E3
S1130070AC36B107D9F720E0ACE6B0E001C01D9280
S1130080AE36B207E1F70E9494010C946C020C9412
S11300900000CF93C82F40E066E081E00E94F501A4
S11300A0C4FB442740F964E082E00E94F501C5FBEB
S11300B0442740F965E082E00E94F501C6FB44272D
S11300C040F966E082E00E94F5014C2F441F44276A
S11300D0441F67E082E00E94F50141E067E081E0AF
S11300E00E94F5018FE19EE40197F1F700C0000042
S11300F040E067E081E00E94F5018FE39FE1019712
S1130100F1F700C000004C2F417064E082E00E94CF
S1130110F501C1FB442740F965E082E00E94F50146
S1130120C2FB442740F966E082E00E94F501C3FB6C
S1130130442740F967E082E00E94F50141E067E06E
S113014081E00E94F5018FE19EE40197F1F700C080
S1130150000040E067E081E00E94F5018FE39FE149
S11301600197F1F700C00000CF91089541E066E0E7
S113017081E00E94C20141E067E081E00E94C20187
S113018041E064E082E00E94C20141E065E082E077
S11301900E94C20141E066E082E00E94C20141E0A7
S11301A067E082E00E94C2018FE39CE90197F1F7C6
S11301B000C0000083E30E9449008FE19EE40197A0
S11301C0F1F700C0000082E30E9449008FE19EE441
S11301D00197F1F700C0000088E20E9449008FE116
S11301E09EE40197F1F700C000008CE00E944900F2
S11301F08FE19EE40197F1F700C0000081E00E94C6
S113020049008FE19EE40197F1F700C0000082E00D
S11302100E9449008FE19EE40197F1F700C00000BD
S113022086E00E9449000895CF93C82F41E066E01C
S113023081E00E94F501C4FB442740F964E082E0B8
S11302400E94F501C5FB442740F965E082E00E9465
S1130250F501C6FB442740F966E082E00E94F501FF
S11302604C2F441F4427441F67E082E00E94F5019D
S113027041E067E081E00E94F5018FE19EE401978F
S1130280F1F700C0000040E067E081E00E94F50162
S11302908FE39FE10197F1F700C000004C2F4170FC
S11302A064E082E00E94F501C1FB442740F965E067
S11302B082E00E94F501C2FB442740F966E082E037
S11302C00E94F501C3FB442740F967E082E00E94E5
S11302D0F50141E067E081E00E94F5018FE19EE4D1
S11302E00197F1F700C0000040E067E081E00E9460
S11302F0F5018FE39FE10197F1F700C00000CF9172
S113030008950F931F93CF938C01C0E003C00E9404
S11303101401CF5FF801EC0FF11D80818111F7CF3B
S1130320CF911F910F9108950E94B60080E690E04E
S11303300E948101FFCF1F920F920FB60F921124DA
S11303402F933F934F935F936F937F938F939F93D9
S1130350AF93BF93EF93FF93E0916C00F0916D0026
S11303600995FF91EF91BF91AF919F918F917F91EB
S11303706F915F914F913F912F910F900FBE0F900E
S11303801F901895823099F018F4813031F0089557
S11303908330B9F08430F9F008958AB350E002C094
S11303A0440F551F6A95E2F7482B4ABB089587B35B
S11303B050E002C0440F551F6A95E2F7482B47BB33
S11303C0089584B350E002C0440F551F6A95E2F7C4
S11303D0482B44BB089581B350E002C0440F551F1D
S11303E06A95E2F7482B41BB08954423D1F141308B
S11303F009F071C08230A1F018F4813031F0089511
S11304008330C9F0843011F108952BB381E090E07A
S113041002C0880F991F6A95E2F7822B8BBB08955F
S113042028B381E090E002C0880F991F6A95E2F733
S1130430822B88BB089525B381E090E002C0880F29
S1130440991F6A95E2F7822B85BB089522B381E058
S113045090E002C0880F991F6A95E2F7822B82BB55
S113046008958230A9F018F4813031F00895833072
S1130470D9F0843029F108952BB381E090E002C0D3
S1130480880F991F6A95E2F7809582238BBB0895A4
S113049028B381E090E002C0880F991F6A95E2F7C3
S11304A08095822388BB089525B381E090E002C043
S11304B0880F991F6A95E2F78095822385BB08957A
S11304C022B381E090E002C0880F991F6A95E2F799
S10F04D08095822382BB0895F894FFCF2E
S10F04DC4D6F68616D656420616C6900FF
S9030000FC
